{
  "transactions": [
    {
      "hash": "0x4d89f37c3f7ad0cc5ee57db8282b3fefe56d32befda9f3c5ac8c3e7517ef0921",
      "transactionType": "CALL",
      "contractName": null,
      "contractAddress": "0x24a79d2c74dee4caff80abec21ca1c8bbd15135c",
      "function": "addPool(bytes32,uint8)",
      "arguments": [
        "0xd81e2f7075ef839ab7897b6609296cb71b4b951bab1215cff428e8e58d6d9c86",
        "0"
      ],
      "transaction": {
        "from": "0x15c3d785a2af6db65b2fad7c64d99b30cabcddc5",
        "to": "0x24a79d2c74dee4caff80abec21ca1c8bbd15135c",
        "gas": "0x1f34e",
        "value": "0x0",
        "input": "0x9d4fe609d81e2f7075ef839ab7897b6609296cb71b4b951bab1215cff428e8e58d6d9c860000000000000000000000000000000000000000000000000000000000000000",
        "nonce": "0x1ce",
        "chainId": "0xaa36a7"
      },
      "additionalContracts": [],
      "isFixedGasLimit": false
    }
  ],
  "receipts": [
    {
      "status": "0x1",
      "cumulativeGasUsed": "0xb29d78",
      "logs": [
        {
          "address": "0x24a79d2c74dee4caff80abec21ca1c8bbd15135c",
          "topics": [
            "0x7d497dd86943a98be67f739036e8729874b0455144821f23e74eb873c6d57a2d",
            "0x0000000000000000000000000000000000000000000000000000000000000000"
          ],
          "data": "0x0000000000000000000000000000000000000000000000000000000000000000d81e2f7075ef839ab7897b6609296cb71b4b951bab1215cff428e8e58d6d9c86",
          "blockHash": "0x27a5a5d58f0e660b5704b86da9256e2bde3b8bebd59d3b9e4e7e8df2600d78dc",
          "blockNumber": "0x9bd953",
          "blockTimestamp": "0x6987cc48",
          "transactionHash": "0x4d89f37c3f7ad0cc5ee57db8282b3fefe56d32befda9f3c5ac8c3e7517ef0921",
          "transactionIndex": "0x3d",
          "logIndex": "0xa3",
          "removed": false
        }
      ],
      "logsBloom": "0x00004000000000000000000000000000000000000000000000000000400000000000000000000000000000000000000000000000000000000000000000000000000001000000000000000000000000000000000000000000000000000000000000000000020000000000000000000800000000000000000000000000000000000000000000000000000000000000000000000000000000000000000000000000000000000000000000000000000000000000000000000000000000000000000000000000000000002000000000000001000000000000000000000200000020000000000000000000000000000000000000000000000000000000000000000000",
      "type": "0x2",
      "transactionHash": "0x4d89f37c3f7ad0cc5ee57db8282b3fefe56d32befda9f3c5ac8c3e7517ef0921",
      "transactionIndex": "0x3d",
      "blockHash": "0x27a5a5d58f0e660b5704b86da9256e2bde3b8bebd59d3b9e4e7e8df2600d78dc",
      "blockNumber": "0x9bd953",
      "gasUsed": "0x1697e",
      "effectiveGasPrice": "0x3f1606b7",
      "from": "0x15c3d785a2af6db65b2fad7c64d99b30cabcddc5",
      "to": "0x24a79d2c74dee4caff80abec21ca1c8bbd15135c",
      "contractAddress": null
    }
  ],
  "libraries": [],
  "pending": [],
  "returns": {},
  "timestamp": 1770507337185,
  "chain": 11155111,
  "commit": "33c7672"
}