{
  "transactions": [
    {
      "hash": "0x4044f79d46269a89006f6202ab6b284c02308d82d1e32029a3151078016808b6",
      "transactionType": "CALL",
      "contractName": null,
      "contractAddress": "0x24a79d2c74dee4caff80abec21ca1c8bbd15135c",
      "function": "addPool(bytes32,uint8)",
      "arguments": [
        "0xedaee9b731b3f6b66651873d25251d4164f053f6338e20cad90121735c7c25a1",
        "1"
      ],
      "transaction": {
        "from": "0x15c3d785a2af6db65b2fad7c64d99b30cabcddc5",
        "to": "0x24a79d2c74dee4caff80abec21ca1c8bbd15135c",
        "gas": "0x1971b",
        "value": "0x0",
        "input": "0x9d4fe609edaee9b731b3f6b66651873d25251d4164f053f6338e20cad90121735c7c25a10000000000000000000000000000000000000000000000000000000000000001",
        "nonce": "0x1cf",
        "chainId": "0xaa36a7"
      },
      "additionalContracts": [],
      "isFixedGasLimit": false
    }
  ],
  "receipts": [
    {
      "status": "0x1",
      "cumulativeGasUsed": "0x39517d",
      "logs": [
        {
          "address": "0x24a79d2c74dee4caff80abec21ca1c8bbd15135c",
          "topics": [
            "0x7d497dd86943a98be67f739036e8729874b0455144821f23e74eb873c6d57a2d",
            "0x0000000000000000000000000000000000000000000000000000000000000001"
          ],
          "data": "0x0000000000000000000000000000000000000000000000000000000000000001edaee9b731b3f6b66651873d25251d4164f053f6338e20cad90121735c7c25a1",
          "blockHash": "0x3f46e5dcaa3d15733ffa3fffa24557bad90dbc75dd8d3dd2eacbec6d535988dc",
          "blockNumber": "0x9bd956",
          "blockTimestamp": "0x6987cc6c",
          "transactionHash": "0x4044f79d46269a89006f6202ab6b284c02308d82d1e32029a3151078016808b6",
          "transactionIndex": "0x2e",
          "logIndex": "0x58",
          "removed": false
        }
      ],
      "logsBloom": "0x00004000000000000000000000000000000000000000000000000000400000000000000000000000000000000000000000000000000000000000000000040000000001000000000000000000000000000000000000040000000000000000000000000000000000000000000000000000000000000000000000000000000000000000000000000000000000000000000000000000000000000000000000000000000000000000000000000000000000000000000000000000000000000000000000000000000000002000000000000001000000000000000000000200000040000000000000000000000000000000000000000000000000000000000000000000",
      "type": "0x2",
      "transactionHash": "0x4044f79d46269a89006f6202ab6b284c02308d82d1e32029a3151078016808b6",
      "transactionIndex": "0x2e",
      "blockHash": "0x3f46e5dcaa3d15733ffa3fffa24557bad90dbc75dd8d3dd2eacbec6d535988dc",
      "blockNumber": "0x9bd956",
      "gasUsed": "0x126be",
      "effectiveGasPrice": "0x3e965dff",
      "from": "0x15c3d785a2af6db65b2fad7c64d99b30cabcddc5",
      "to": "0x24a79d2c74dee4caff80abec21ca1c8bbd15135c",
      "contractAddress": null
    }
  ],
  "libraries": [],
  "pending": [],
  "returns": {},
  "timestamp": 1770507372422,
  "chain": 11155111,
  "commit": "33c7672"
}