{
  "transactions": [
    {
      "hash": "0xb03b69c7260e6c2fdc1665839a73eb1d0b8530275fb1690a31db2101aca4f0bc",
      "transactionType": "CALL",
      "contractName": null,
      "contractAddress": "0x24a79d2c74dee4caff80abec21ca1c8bbd15135c",
      "function": "addPool(bytes32,uint8)",
      "arguments": [
        "0x6c92e8eeb40fe91f771ca88bd635f4df6124ddf26602b17b58dc78c35d821890",
        "2"
      ],
      "transaction": {
        "from": "0x15c3d785a2af6db65b2fad7c64d99b30cabcddc5",
        "to": "0x24a79d2c74dee4caff80abec21ca1c8bbd15135c",
        "gas": "0x1971b",
        "value": "0x0",
        "input": "0x9d4fe6096c92e8eeb40fe91f771ca88bd635f4df6124ddf26602b17b58dc78c35d8218900000000000000000000000000000000000000000000000000000000000000002",
        "nonce": "0x1d0",
        "chainId": "0xaa36a7"
      },
      "additionalContracts": [],
      "isFixedGasLimit": false
    }
  ],
  "receipts": [
    {
      "status": "0x1",
      "cumulativeGasUsed": "0xa56427",
      "logs": [
        {
          "address": "0x24a79d2c74dee4caff80abec21ca1c8bbd15135c",
          "topics": [
            "0x7d497dd86943a98be67f739036e8729874b0455144821f23e74eb873c6d57a2d",
            "0x0000000000000000000000000000000000000000000000000000000000000002"
          ],
          "data": "0x00000000000000000000000000000000000000000000000000000000000000026c92e8eeb40fe91f771ca88bd635f4df6124ddf26602b17b58dc78c35d821890",
          "blockHash": "0x1944e84949775c348e5c80ef345f5d51487929f220bcb3003a77b65b9700cf25",
          "blockNumber": "0x9bd958",
          "blockTimestamp": "0x6987cc90",
          "transactionHash": "0xb03b69c7260e6c2fdc1665839a73eb1d0b8530275fb1690a31db2101aca4f0bc",
          "transactionIndex": "0x50",
          "logIndex": "0xb1",
          "removed": false
        }
      ],
      "logsBloom": "0x04004000000000000000000000000000000000000000000000000000400000000000000000000000000000000000000000000000000000000000000000000000000001000000000000000000000000000000000000000000000000000000000000000000000000000000000000000000000000000000000000000000000000000000000000000000000000000000000000000000000000000000000000000000000000000000000000000100000000000000000000000000000000000000000000000000000000002000000000000001000000000000000000000200000000000000000000000000000000000000000000000000008000000000000000000000",
      "type": "0x2",
      "transactionHash": "0xb03b69c7260e6c2fdc1665839a73eb1d0b8530275fb1690a31db2101aca4f0bc",
      "transactionIndex": "0x50",
      "blockHash": "0x1944e84949775c348e5c80ef345f5d51487929f220bcb3003a77b65b9700cf25",
      "blockNumber": "0x9bd958",
      "gasUsed": "0x126be",
      "effectiveGasPrice": "0x3f53c413",
      "from": "0x15c3d785a2af6db65b2fad7c64d99b30cabcddc5",
      "to": "0x24a79d2c74dee4caff80abec21ca1c8bbd15135c",
      "contractAddress": null
    }
  ],
  "libraries": [],
  "pending": [],
  "returns": {},
  "timestamp": 1770507408770,
  "chain": 11155111,
  "commit": "33c7672"
}